:100000000C9434000C943E000C943E000C943E0082
:100010000C943E000C943E000C943E000C943E0068
:100020000C943E000C943E000C943E000C943E0058
:100030000C943E000C943E000C943E000C943E0048
:100040000C943E000C943E000C943E000C943E0038
:100050000C943E000C943E000C943E000C943E0028
:100060000C943E000C943E0011241FBECFEFD8E04C
:10007000DEBFCDBF0E9440000C9466000C940000CF
:1000800080EF84B98FE085B984E08AB961E023B15B
:1000900043B193B19695917033B123FB222720F998
:1000A000822F86275BB142FB442740F94823232F48
:1000B0002170322F392B4323262798239223842F14
:1000C000892B880F880F852B8BB9E1CFF894FFCF50
:00000001FF
